:100000000C942A120C945B120C945B120C945B12ED
:100010000C945B120C945B120C945B120C945B12AC
:100020000C945B120C945B120C945B120C945B129C
:100030000C945B120C945B120C945B120C945B128C
:100040000C945B120C9462B30C945B120C945B12D4
:100050000C945B120C945B120C948FAB0C9458A80C
:100060000C945B120C946B630C945B120C945B12FB
:100070000C945B120C945B120C945B120C945B124C
:100080000C9403BD0C945B120C945B120C945B12E9
:100090000C945B120C945B120C945B120C945B122C
:1000A0000C945B120C945B120C94D5BC0C945B12F8
:1000B0000C945B120C945B120C945B120C94A7BC16
:1000C0000C945B120C945B120C945B120C94CCA8F5
:1000D0000C94A2A80C945B120C945B120C945B120F
:1000E0000C945B12084AD73B3BCE016E84BCBFFD2B
:1000F000C12F3D6C74319ABD56833DDA3D00C77FF8
:1001000011BED9E4BB4C3E916BAAAABE0000008090
:100110003F05A84CCDB2D44EB93836A9020C50B91F
:10012000918688083CA6AAAA2ABE000000803F004B
:100130000C94DEA40C940EE90C94B2500C94A446DA
:100140000C9449140C940CA50C9465140C949F9673
:100150000C9495970C94C4960C9466E70C949B961B
:100160000C94604A0C946E460C947B280C9461A508
:100170000C944E5B0C9491960C9497960C9443A51A
:100180000C94BA960C943B970C94B6960C946BA571
:100190000C942AA50C94AC960C94A15F0C94D29666
:1001A0000C9450530C944DA50C94D6960C9431603D
:1001B0000C94FCA40C942C970C9439A50C94C75D5A
:1001C0000C940B500C94FF960C94CE4D0C946A48F2
:1001D0000C9404A50C941F540C94CE5A0C94D196F4
:1001E0000C94D1A40C94A6960C94B0960C94BE9644
:1001F0000C9457A50C942E4E0C9416A50C94D9A4CF
:100200000C94F2A40C9420A50C94CC960C94574A10
:100210000C945D970C944A140C944F970C94A396ED
:100220000C94E2970C9497570C94C8960C946A56C9
:100230000C94E8A44E414E494E495459494E46CD7E
:10024000CCCC3D0AD7233C17B7D13877CC2B32958D
:1002500095E6241FB14F0A000020410000C842006B
:10026000401C4620BCBE4CCA1B0E5AAEC59D740035
:10027000407A10F35A00A0724E18090010A5D4E875
:100280000000E87648170000E40B54020000CA9A08
:100290003B000000E1F5050000809698000000405A
:1002A000420F000000A0860100000010270000009F
:1002B00000E803000000006400000000000A0000E5
:1002C0000000000100000000002C76D888DC674F99
:1002D0000823DFC1DFAE59E1B1B796E5E3E453C6C9
:1002E0003AE651997696E8E6C28426EB898C9B62C1
:1002F000ED407C6FFCEFBC9C9F40F2BAA56FA5F46B
:1003000090055A2AF75C936B6CF9676DC11BFCE092
:10031000E40D47FEF520E6B500D0ED902E030094E5
:100320003577050080841E080000204E0A0000007A
:10033000C80C333333330F986E12831141EF8D2184
:1003400014893BE65516CFFEE6DB18D1844B381BEB
:10035000F77C1D901DA4BBE424203284725E2281B0
:1003600000C9F124ECA1E53D27434F4D4D554E49C1
:10037000434154494F4E0044525952554E00455244
:10038000524F525300494E464F004543484F004D8F
:100390003234004D3233202573004D313036205336
:1003A000323535004D31303920532569004D313912
:1003B00030205325690047393220452573004730E6
:1003C000205A2573004D31303920532569004D31B5
:1003D000393020532569004D323400473238004D02
:1003E000343230205330004D343230205331004706
:1003F000312046313030205A3000473120583530D6
:1004000020593330302046333630300047312046D3
:10041000313030205A330047312046313030205AB5
:1004200030004731205833303020593330302046A7
:10043000333630300047312046313030205A3300D7
:1004400047312046313030205A3000473120583370
:100450003030205935302046333630300047312097
:1004600046313030205A3300473120463130302079
:100470005A30004731205835302059353020463326
:100480003630300047312046313030205A33004773
:10049000312046313030205A300047312058313831
:1004A0003020593138302046333630300047312043
:1004B00046313030205A3300473239004739300056
:1004C00047323800473238205A3000473238004D22
:1004D00038340047312046323030205A302E300038
:1004E0004732380047393220452573004730205ABB
:1004F0002573004D31303920532569004D31393095
:1005000020532569004732382058302059300047A1
:100510003238205830205930005072696E7465723C
:100520002073746F707065642064756520746F202B
:100530006572726F72732E20466978207468652028
:100540006572726F7220616E6420757365204D391B
:10055000393920746F20726573746172742E20288B
:1005600054656D706572617475726520697320726F
:10057000657365742E2053657420697420616674F8
:1005800065722072657374617274696E67290A00FE
:100590004E6F204C696E65204E756D6265722077D6
:1005A00069746820636865636B73756D2C204C619A
:1005B0007374204C696E653A20004E6F2043686565
:1005C000636B73756D2077697468206C696E652044
:1005D0006E756D6265722C204C617374204C696E6F
:1005E000653A2000636865636B73756D206D697390
:1005F0006D617463682C204C617374204C696E6566
:100600003A20004C696E65204E756D6265722069F6
:1006100073206E6F74204C617374204C696E65207A
:100620004E756D6265722B312C204C617374204CB9
:10063000696E653A20004D313130004D3331004D47
:10064000383420582059205A2045005344207265E0
:100650006164206572726F720A00446F6E6520706B
:1006600072696E74696E672066696C650A0020495C
:100670006E76616C69642065787472756465722049
:10068000000000000000000000000000000000B4B6
:10069000430000B4430000CD43473020463336309A
:1006A00030205831383020593138300042696C6977
:1006B0006E656172204C6576656C696E6720477265
:1006C00069643A0A0020706F736974696F6E206FF5
:1006D0007574206F662072616E67652E0A003F5048
:1006E000726F6265200052756E6E696E6720696E6A
:1006F000204452592D52554E206D6F64650A0047B3
:100700003239204175746F20426564204C657665EE
:100710006C696E670A0028422961636B00284629CC
:10072000726F6E74002852296967687400284C291A
:10073000656674003F2856296572626F7365206C88
:100740006576656C20697320696D706C617573697D
:10075000626C652028302D34292E0A004261642005
:100760005A2076616C75650A004E6F2062696C696B
:100770006E65617220677269640A0044656C657415
:10078000696F6E206661696C65642C2046696C65D2
:100790003A200046696C652064656C657465643A4E
:1007A000006F70656E206661696C65642C20466917
:1007B0006C653A20005374616E6461726420446514
:1007C00076696174696F6E3A20002052616E6765C8
:1007D0003A2000204D61783A2000204D696E3A2081
:1007E000004D65616E3A200046696E697368656404
:1007F000210A002072616E67653A2000206D6178E1
:100800003A2000206D696E3A2000207369676D619F
:100810003A2000206D65616E3A20003A207A3A2035
:1008200000206F662000205A002059002058004701
:100830006F696E6720746F3A00436C6F636B776902
:1008400073650A00436F756E7465722D00204469EC
:1008500072656374696F6E3A2000202020616E67B4
:100860006C653A20005374617274696E672072611E
:10087000646975733A2000506F736974696F6E69AB
:100880006E67207468652070726F62652E2E2E0A66
:10089000003F4E756D626572206F66206C656773F0
:1008A00020696E206D6F76656D656E74206E6F7455
:1008B00020706C61757369626C652028302D31354C
:1008C000292E0A00590058003F53616D706C652055
:1008D00073697A65206E6F7420706C6175736962DC
:1008E0006C652028342D3530292E0A004D343820EF
:1008F0005A2D50726F626520526570656174616235
:10090000696C69747920546573740A003F2856290C
:100910006572626F7365206C6576656C2069732003
:10092000696D706C61757369626C652028302D3457
:10093000292E0A00202F002042403A0020403A0091
:100940004732382058302059300020573A0047327B
:10095000382058302059300020573A00205A3A00A9
:1009600020593A0020436F756E7420583A00204594
:100970003A00205A3A0020593A00583A0043617030
:100980003A454D455247454E43595F5041525345B4
:10099000523A300A004361703A434153455F4C4933
:1009A0004748545F4252494748544E4553533A30A2
:1009B0000A004361703A544F47474C455F4C4947E2
:1009C0004854533A300A004361703A534F465457E3
:1009D0004152455F504F5745523A300A00436170CB
:1009E0003A4C4556454C494E475F444154413A3193
:1009F0000A004361703A5A5F50524F42453A310AF9
:100A0000004361703A4155544F4C4556454C3A317C
:100A10000A004361703A5052494E545F4A4F423A7D
:100A2000310A004361703A50524F47524553533A8E
:100A3000300A004361703A4155544F5245504F526D
:100A4000545F54454D503A310A004361703A454570
:100A500050524F4D3A310A004649524D5741524586
:100A60005F4E414D453A4D61726C696E205665721C
:100A700020312E37312E31204A4120284952432936
:100A800020534F555243455F434F44455F55524CA9
:100A90003A68747470733A2F2F6769746875622EA0
:100AA000636F6D2F4B65727365794661627269631E
:100AB0006174696F6E732F6D61726C696E5F6535FD
:100AC000702050524F544F434F4C5F56455253493C
:100AD0004F4E3A312E30204D414348494E455F54E8
:100AE0005950453A456E6465722D3520506C7573CA
:100AF0002045585452554445525F434F554E543A41
:100B00003120555549443A63656465326132662D3A
:100B1000343161322D343734382D396231322D631E
:100B200035356336326633363766660A00205A003A
:100B3000205900580020204D61783A2000205A00AA
:100B4000205900580020204D696E3A20004F6E2039
:100B5000004F666600536F667420656E6473746F31
:100B600070733A200020643A0020693A0020703AFD
:100B70000023646566696E65202044454641554CF6
:100B8000545F4B64200023646566696E65202044D1
:100B9000454641554C545F4B6920002364656669A6
:100BA0006E65202044454641554C545F4B702000F3
:100BB000504944204175746F74756E652066696E86
:100BC0006973686564212050757420746865206CB1
:100BD000617374204B702C204B6920616E64204B34
:100BE0006420636F6E7374616E74732066726F6DD0
:100BF0002062656C6F7720696E746F20436F6E663C
:100C0000696775726174696F6E2E680A0050494495
:100C1000204175746F74756E65206661696C6564DA
:100C2000212074696D656F75740A00504944204134
:100C300075746F74756E65206661696C65642120DA
:100C400054656D706572617475726520746F6F2084
:100C5000686967680A00204B643A2000204B693AB3
:100C60002000204B703A20000A20436C61737369A6
:100C70006320504944200A002054753A2000204B3C
:100C8000753A2000206D61783A2000206D696E3A37
:100C9000200020643A200020626961733A20004FEE
:100CA00066660A0046616465204865696768742065
:100CB00000426564204C6576656C696E672000466D
:100CC00061696C656420746F20656E61626C65207B
:100CD000426564204C6576656C696E670A004D65F7
:100CE000736820706F696E742063616E6E6F74201C
:100CF0006265207265736F6C7665640A004D3432EC
:100D00003120696E636F7272656374207061726105
:100D10006D657465722075736167650A004175744D
:100D20006F0020452F443D00416476616E6365206D
:100D30004B3D0047322F473320626164207061725F
:100D4000616D65746572730A005A2070726F626516
:100D5000206F75742E206265640A00473238205A6D
:100D600020466F7262696464656E0A00473239001A
:100D7000205A3A200020593A200042656420583A0F
:100D800020004D65736820706F696E742063616E1A
:100D90006E6F74206265207265736F6C7665640A8D
:100DA00000456E642066696C65206C6973740A0086
:100DB000426567696E2066696C65206C6973740AA8
:100DC000002E0A0044656C6574696F6E2862696E56
:100DD00029206661696C65640046696C65286269F2
:100DE0006E292064656C65746564005344207072DC
:100DF000696E74696E67206279746520004E6F7445
:100E0000205344207072696E74696E670A00256908
:100E1000730025696D20256973002569682025699F
:100E20006D2025697300256964202569682025697E
:100E30006D2025697300256979202569642025695D
:100E4000682025696D20256973005072696E7420D1
:100E500074696D653A200050726F746563746564DF
:100E60002050696E0A006F6666008A0385037E0360
:100E70007703690344454255473A004D31313320E9
:100E800053006F6B002F2F200053657474696E67D9
:100E90002054726176656C20416363656C65726194
:100EA00074696F6E3A200053657474696E672052DE
:100EB00065747261637420416363656C657261740B
:100EC000696F6E3A200053657474696E67205072C2
:100ED000696E7420416363656C65726174696F6EDD
:100EE0003A200053657474696E67205072696E749D
:100EF00020616E642054726176656C204163636585
:100F00006C65726174696F6E3A2000000136372695
:100F1000FF033C3D38FF0E2E303E12FFFF0C080948
:100F2000FFFFFF1A1C18FFFF08440AFF43FFFFFFE3
:100F3000FFFFFF3A200020536572766F2000206F7C
:100F40007574206F662072616E67650A0053657262
:100F5000766F200043290A0061626C656420286D69
:100F6000696E2074656D702000436F6C6420657835
:100F7000747275646573206172652000546F6F2010
:100F80006661722066726F6D207265666572656E4D
:100F9000636520706F696E740A00207A70726F62E8
:100FA000655F7A6F66667365743D20007A5F6D6970
:100FB0006E3A20202D3230207A5F6D61783A202001
:100FC0003230005A204F666673657420004E6F20E1
:100FD00063617365206C696768740A0041637469B2
:100FE00076652045787472756465723A2000556E96
:100FF0006B6E6F776E20636F6D6D616E643A202249
:1010000000526573656E643A20006F6B0020746F48
:101010006F206C6F6E6720657874727573696F6E80
:101020002070726576656E7465640A0020636F6C6B
:101030006420657874727573696F6E20707265765E
:10104000656E7465640A00627573793A2070617523
:1010500073656420666F7220696E7075740A006231
:101060007573793A2070617573656420666F7220BC
:10107000757365720A00627573793A2070726F63D6
:10108000657373696E670A004B494C4C2063617548
:10109000736564206279204B494C4C2062757474EE
:1010A0006F6E2F70696E0A004B494C4C206361755E
:1010B00073656420627920746F6F206D756368209A
:1010C000696E6163746976652074696D65202D2091
:1010D00063757272656E7420636F6D6D616E643AD4
:1010E00020000000B4430000B443000000000000F2
:1010F0004842000048420000804000000000576164
:10110000726E696E673A20486F6D696E672042752E
:101110006D702044697669736F72203C20310A003B
:101120000202040000A0400000A0400000004000B7
:1011300000B4430000B4430000CD430101FF6269E5
:101140006E004D31313720494E56414C49442044C0
:101150004154412E00473932205A257320452573CA
:101160000062696E007C3C3E5E2B3D3F2F5B5D3B29
:101170002C2A225C004572726F7220777269746942
:101180006E6720746F20454550524F4D210A00294B
:101190000A002062797465733B20637263200053F8
:1011A000657474696E67732053746F726564202868
:1011B00000202863616C63756C6174656429210A81
:1011C0000020213D2000454550524F4D20435243C1
:1011D000206D69736D61746368202D202873746FAE
:1011E000726564292000290A002062797465733BC6
:1011F0002063726320002073746F726564207365CE
:101200007474696E6773207265747269657665645B
:10121000202800204D61726C696E3D563431290AD8
:101220000028454550524F4D3D00454550524F4DC9
:101230002076657273696F6E206D69736D6174637A
:1012400068200048617264636F6465642044656669
:1012500061756C742053657474696E6773204C6F8C
:10126000616465640A00F4010000F4010000640098
:101270000000E803000000009643000096430000D1
:10128000A0400000C8410000A0420000A0420000B1
:1012900048440000BA4220520020204D393030200E
:1012A0004B004C696E65617220416476616E6365C6
:1012B0003A0A0020204D383531205A005A2D5072FC
:1012C0006F6265204F666673657420286D6D293ADC
:1012D0000A0020440020490020204D3330312050A6
:1012E000005049442073657474696E67733A0A004C
:1012F000205A0020204D3432302053004175746F45
:1013000020426564204C6576656C696E673A0A0018
:10131000205A0020590020204D32303620580048F5
:101320006F6D65206F66667365743A0A002045002C
:10133000205A00205900205800204200205400204C
:10134000204D323035205300416476616E63656410
:101350003A20533C6D696E5F6665656472617465C1
:101360003E20543C6D696E5F74726176656C5F6699
:10137000656564726174653E20423C6D696E5F73A1
:1013800065676D656E745F74696D655F6D733E2032
:10139000583C6D61785F78795F6A65726B3E205A60
:1013A0003C6D61785F7A5F6A65726B3E20453C6D8B
:1013B00061785F655F6A65726B3E0A0020540020A9
:1013C000520020204D323034205000416363656C60
:1013D00065726174696F6E2028756E6974732F73FE
:1013E00032293A20503C7072696E745F61636365A4
:1013F0006C3E20523C726574726163745F6163631A
:10140000656C3E20543C74726176656C5F61636309
:10141000656C3E0A00204500205A0020590020201B
:101420004D3230312058004D6178696D756D204125
:101430006363656C65726174696F6E2028756E698F
:1014400074732F7332293A0A00204500205A002075
:10145000590020204D3230332058004D6178696D9D
:10146000756D206665656472617465732028756E9C
:101470006974732F73293A0A00204500205A00200E
:10148000590020204D393220580053746570732064
:1014900070657220756E69743A0A0020204D3230F2
:1014A000302044300A0020204D32303020440020CB
:1014B00044697361626C65640A0046696C616D65BC
:1014C0006E742073657474696E67733A0020204DE2
:1014D0003134392043203B20556E69747320696E86
:1014E0002043656C736975730A00202047323120F0
:1014F0002020203B20556E69747320696E206D6D2D
:101500000A007A5F6D696E3A2000795F6D61783A02
:101510002000785F6D61783A20005265706F7274B8
:10152000696E6720656E6473746F70207374617484
:1015300075730A0020746F6F206C6F6E672065787A
:1015400074727573696F6E2070726576656E7465FE
:10155000640A0020636F6C64206578747275736927
:101560006F6E2070726576656E7465640A0024F48F
:10157000D43050C38E20C2A24017828B7011127AD1
:10158000910D816CD90AA861E108C75866076151BD
:1015900043061E4B5D05C145A7041A411104093DD0
:1015A0009803713931034036DB0265339102D43040
:1015B0005402802E1D02632CEE01752AC501B0284D
:1015C000A001102781018F2564012B244B01E0220B
:1015D0003401AC211F018D200D01801FFC00841EF1
:1015E000ED00971DDF00B81CD200E61BC600201BD3
:1015F000BC00641AB200B219A8000A19A0006A1847
:101600009900D117910040178B00B5168400311650
:101610007E00B31579003A157300C7146F00581493
:101620006A00EE1366008813630025135E00C7127C
:101630005B006C12570015125400C111510070115B
:101640004F0021114B00D61049008D104700461065
:10165000440002104200C00F4000800F3E00420FC5
:101660003C00060F3B00CB0E3800930E37005C0E9B
:101670003500270E3400F30D3200C10D3100900DFE
:101680003000600D2E00320D2D00050D2C00D90C00
:101690002B00AE0C2900850C29005C0C2700350CB2
:1016A00027000E0C2600E80B2400C40B2400A00B1E
:1016B00023007D0B23005A0B2100390B2100180B4E
:1016C0002000F80A1F00D90A1E00BB0A1E009D0A4E
:1016D0001D00800A1D00630A1C00470A1B002C0A1B
:1016E0001B00110A1A00F7091A00DD091900C409C4
:1016F0001900AB091900920917007B09180063094A
:1017000017004C09160036091600200916000A09B0
:101710001500F5081500E0081400CC081400B808FE
:101720001400A4081400900813007D0812006B0830
:10173000130058081200460812003408110023084C
:1017400011001208110001081100F0071000E00755
:101750001000D0071000C0071000B0070F00A1074D
:10176000100091070E0083070F0074070F00650734
:101770000E0057070E0049070E003B070D002E070D
:101780000E0020070D0013070D0006070D00F906D7
:101790000C00ED060D00E0060C00D4060C00C80697
:1017A0000C00BC060C00B0060C00A4060B00990649
:1017B0000C008D060B0082060B0077060B006C06F2
:1017C0000B0061060A0057060B004C060A00420691
:1017D0000A0038060A002E060A0024060A001A0625
:1017E0000A001006090007060A00FD050900F405B5
:1017F0000900EB050900E2050900D9050900D0053B
:101800000900C7050900BE050900B5050800AD05BA
:101810000800A50509009C050800940508008C0532
:101820000800840508007C050800740508006C05A4
:101830000700650508005D050700560508004E0510
:101840000700470507004005080038050700310577
:1018500007002A050700230507001C0506001605DA
:1018600007000F0507000805060002050700FB0436
:101870000600F5040700EE040600E8040600E20492
:101880000700DB040600D5040600CF040600C904E7
:101890000600C3040600BD040600B7040600B10438
:1018A0000500AC040600A6040600A00405009B0485
:1018B000060095040500900406008A0405008504CE
:1018C0000500800406007A04050075040500700414
:1018D00005006B04050066040500610405005C0456
:1018E000050057040500520405004D040500480496
:1018F0000500430405003E0404003A0405003504D5
:101900000500300404002C0405002704040023040F
:1019100005001E0404001A04040016040500110446
:1019200004000D040400090405000404040000047C
:101930000400FC030400F8030400F4030400F003B3
:101940000400EC030400E8030400E4030400E003E3
:101950000400DC030400D8030400D4030400D00313
:101960000400CC030400C8030300C503030024F4EF
:1019700004D9201BC40C5C0E9804C4095F026507DF
:101980007101F405F900FB04B30048048700C103AA
:1019900069005803550003034500BE023A00840263
:1019A000310053022A002902250004022000E4012C
:1019B0001C00C8011900AF01170098011400840130
:1019C0001300710110006101100051010E0043016C
:1019D0000D0036010B002B010B0020010B0015013F
:1019E00009000C01090003010800FB000800F300D6
:1019F0000800EB000700E4000600DE000600D80047
:101A00000600D2000600CC000500C7000500C20099
:101A10000500BD000400B9000400B5000400B100D9
:101A20000400AD000400A9000400A5000300A2000A
:101A300003009F0004009B00030098000300950032
:101A4000020093000300900003008D0002008B0051
:101A50000300880002008600020084000300810069
:101A600002007F0002007D0002007B00020079007E
:101A7000020077000100760002007400020072008C
:101A80000100710002006F0002006D0001006C0097
:101A900002006A00010069000200670001006600A0
:101AA00001006500010064000200620001006100A5
:101AB0000100600001005F0002005D0001005C00A9
:101AC00001005B0001005A000100590001005800AC
:101AD00001005700010056000100550001005400AC
:101AE00001005300000053000100520001005100AA
:101AF0000100500001004F0001004E0000004E00A8
:101B000001004D0001004C0001004B0000004B00A3
:101B100001004A000100490001004800000048009F
:101B2000010047000100460000004600010045009A
:101B30000000450001004400010043000000430094
:101B4000010042000000420001004100000041008D
:101B50000100400001003F0000003F0001003E0086
:101B600000003E0001003D0000003D0001003C007F
:101B700000003C0000003C0001003B0000003B0076
:101B800001003A0000003A0001003900000039006D
:101B90000100380000003800000038000100370064
:101BA000000037000100360000003600000036005B
:101BB0000100350000003500000035000100340050
:101BC0000000340000003400010033000000330046
:101BD000000033000100320000003200000032003B
:101BE0000100310000003100000031000100300030
:101BF000000030000000300001002F0000002F0026
:101C000000002F0000002F0001002E0000002E0019
:101C100000002E0001002D0000002D0000002D000E
:101C200000002D0001002C0000002C0000002C0002
:101C300000002C0001002B0000002B0000002B00F6
:101C400000002B0001002A0000002A0000002A00EA
:101C500000002A00010029000000290000002900DE
:101C600000002900000029000100280000002800D1
:101C700000002800000028000000280001002700C4
:101C800000002700000027000000270000002700B8
:101C900001002600000026000000260000002600AB
:101CA000000026000100250000002500000025009E
:101CB0000000250000002500000025000100240090
:101CC0000000240000002400000024000000240084
:101CD0000100230000002300000023000000230077
:101CE0000000230000002300000023000100220068
:101CF000000022000000220000002200000022005C
:101D0000000022000100210000002100000021004D
:101D1000000021000000210000002100000021003F
:101D20000100200000002000000020000000200032
:101D30000000200000002000000020000000200023
:101D400001001F0000001F0000001F0000001F0016
:101D500000001F0000001F0000001F0001001E0007
:101D600000001E0000001E0000001E0000004D3894
:101D70003420582059205A2045006265640A002CFE
:101D80002073797374656D2073746F70706564214E
:101D9000204865617465725F49443A200048656176
:101DA00074696E67206661696C656400486561747A
:101DB000696E67206661696C656400486561746975
:101DC0006E67206661696C65640048656174696E60
:101DD00067206661696C65640070012C01900127C1
:101DE00001B0012201C0011D01F001180110021310
:101DF0000130020E016002090190020401C002FFDD
:101E0000000003FA004003F5008003F000D003EB6C
:101E1000002004E6007004E100E004DC004005D787
:101E200000C005D2004006CD00D006C8008007C320
:101E3000003008BE00F008B900C009B400B00AAF15
:101E400000B00BAA00D00CA500000EA000500F9B04
:101E500000C01096005012910000148C00C015872D
:101E600000B0178200B0197D00D01B7800001E73EF
:101E70000040206E0090226900F024640040275F3B
:101E80000090295A00E02B5500102E500020304BB6
:101E90000010324600E033410090353C00103737E7
:101EA0000070383200A0392D00B03A2800A03B2342
:101EB00000603C1E00103D1900903D1400103E0FC4
:101EC00000703E0A00C03E0500003F0000403FFB9E
:101ED000FF803FF6FFC03FF1FF544845524D414C53
:101EE0002052554E4157415900546865726D616CDE
:101EF0002052756E61776179004572723A204D49C2
:101F00004E54454D5020424544004572723A204D92
:101F1000494E54454D50004D494E54454D50207446
:101F20007269676765726564004572723A204D4157
:101F30005854454D5020424544004572723A204D58
:101F4000415854454D50004D415854454D50207412
:101F50007269676765726564004D343230205331B1
:101F6000004D343230205330002020506C616E6EB2
:101F7000657242756666657242797465733A2000CF
:101F80002046726565204D656D6F72793A20004379
:101F90006F6D70696C65643A204F6374203236202F
:101FA000323032330A00207C20417574686F723AF7
:101FB00020456E6465722D3520506C7573204A4142
:101FC0000A00323032332D31302D323600204C6150
:101FD000737420557064617465643A2000566572AC
:101FE00020312E37312E31204A410A004D61726C6A
:101FF000696E0020536F6674776172652052657355
:1020000065740A00205761746368646F67205265C5
:102010007365740A002042726F776E206F757420AA
:1020200052657365740A002045787465726E616C40
:102030002052657365740A00506F77657255700A97
:102040000073746172740A006572726F7220777225
:102050006974696E6720746F2066696C650A002078
:102060005A3A0020593A0020583A00656E64737459
:102070006F7073206869743A2000446F6E65207336
:102080006176696E672066696C652E0A004D32398B
:102090000000002100240027002A002D003000331A
:1020A0000001010000040107010A010000220025CF
:1020B0000028002B002E0031003400020100000532
:1020C0000108010B01000020002300260029002C3C
:1020D000002F003200000100000301060109010584
:1020E000050505070508080808020202020A0A0891
:1020F00008040404040101010101010101030303B7
:102100000303030303040707070C0C0C0C0C0C0C53
:102110000C0202020206060606060606060B0B0B5A
:102120000B0B0B0B0B010210202008081020401095
:10213000204080020102010804020101020408108B
:1021400020408080402010080402018004020180A9
:1021500040201008040201080402010102040810D2
:10216000204080010204081020408000000A0B0279
:10217000090C0D0E08070304010000000000000018
:10218000000000000000000000000000000000004F
:10219000000000000000001211100000000000000C
:1021A000000000000000000000000000000000002F
:1021B0000050726F62696E67206661696C65640ABF
:1021C00000205A3A200020593A20004265642058E5
:1021D0003A20005072696E7465722073746F70706B
:1021E00065642064756520746F206572726F727308
:1021F0002E2046697820746865206572726F72209F
:10220000616E6420757365204D39393920746F20F3
:10221000726573746172742E202854656D706572D6
:1022200061747572652069732072657365742E2000
:1022300053657420697420616674657220726573D9
:1022400074617274696E67290A0053544F50206399
:10225000616C6C65642062656361757365206F668F
:1022600020424C546F756368206572726F72202D26
:1022700020726573746172742077697468204D39B7
:1022800039390A002066697273740A005A005900CD
:102290005800486F6D65200057726974696E672039
:1022A000746F2066696C653A20006F70656E2066F9
:1022B00061696C65642C2046696C653A20006F701A
:1022C000656E206661696C65642C2046696C653AB0
:1022D000200046696C652073656C65637465640AEB
:1022E000002053697A653A200046696C65206F705A
:1022F000656E65643A20006F70656E206661696C7A
:1023000065642C2046696C653A20002066696C651E
:102310003A20004E6F7720002220706F7300222039
:10232000706172656E743A2200535542524F555493
:10233000494E452043414C4C207461726765743AA4
:102340002200747279696E6720746F2063616C6C0F
:10235000207375622D67636F64652066696C6573B1
:10236000207769746820746F6F206D616E79206CBE
:102370006576656C732E204D4158206C6576656CD2
:102380002069733A0043616E6E6F74206F70656EE2
:102390002073756264697220002E0A006F70656E8A
:1023A000206661696C65642C2046696C653A200082
:1023B00057726974696E6720746F2066696C653A3C
:1023C000200053442063617264206F6B0A006F70B9
:1023D000656E526F6F74206661696C65640A007681
:1023E0006F6C756D652E696E6974206661696C65C8
:1023F000640A00534420696E6974206661696C0A3E
:10240000004D3234004D3233202573006175746FF6
:1024100025692E6700656E7175657565696E672043
:1024200022006563686F3A005072696E74657220AD
:1024300068616C7465642E206B696C6C282920635C
:10244000616C6C6564210A004572726F723A00001B
:102450000EE966E711241FBECFEFD1E2DEBFCDBF8C
:1024600000E00CBF15E0A0E0B2E0EAE7F5E002E032
:102470000BBF02C007900D92A836B107D9F72CE127
:10248000A8E6B5E001C01D92AD39B207E1F712E14F
:10249000C9E2D2E100E006C021970109802FFE01C8
:1024A0000F94F801C832D10780E00807A9F70E940D
:1024B00054EA0D94AB020C940000CF92DF92EF929D
:1024C000FF92CF93DF93EC01C0903107D090320799
:1024D000E0903307F0903407A70196016881798175
:1024E0008A819B810E940AF887FF04C0C882D98232
:1024F000EA82FB82C0903507D0903607E09037071C
:10250000F0903807A70196016C817D818E819F81B3
:102510000E940AF887FF04C0CC82DD82EE82FF822F
:10252000C0903907D0903A07E0903B07F0903C0705
:10253000A7019601688579858A859B850E940AF89E
:1025400087FF04C0C886D986EA86FB86C09016023B
:10255000D0901702E0901802F0901902A70196019E
:10256000688179818A819B810F941201181624F465
:10257000C882D982EA82FB82C0901A02D0901B02E4
:10258000E0901C02F0901D02A70196016C817D81F4
:102590008E819F810F941201181624F4CC82DD8263
:1025A000EE82FF82C0901E02D0901F02E0902002B7
:1025B000F0902102A7019601688579858A859B851F
:1025C0000F941201181624F4C886D986EA86FB8671
:1025D000DF91CF91FF90EF90DF90CF900895CF9251
:1025E000DF92EF92FF92C0908907D0908A07E09027
:1025F0008B07F0908C0780918D07882381F120E074
:1026000030E0A901C701B6010E940AF8882339F118
:1026100020E030E040E05FE3C701B6010E9470F8BF
:102620009B01AC010E9470F82BED3FE049E450E4BF
:102630000E9470F89B01AC0160E070E080E89FE3CD
:102640000E94ACFF6093D7077093D8078093D90797
:102650009093DA07FF90EF90DF90CF90089560E0BD
:1026600070E080E89FE3EECFCF92DF92EF92FF928F
:102670006091840770918507072E000C880B990BD9
:102680000E9411F86B017C012DEB37E346E855EB16
:102690000F94120187FD0BC02DEB37E346E855E39D
:1026A000C701B6010E940AF818160CF043C0A70132
:1026B000960160E070E080E89FE30E94ACFF6093C9
:1026C0001207709313078093140790931507609176
:1026D000860770918707072E000C880B990B0E94C4
:1026E00011F86B017C012DEB37E346E855EB0F94B5
:1026F000120187FD0AC02DEB37E346E855E3C70119
:10270000B6010E940AF81816CCF4A701960160E001
:1027100070E080E89FE30E94ACFF6093160770931F
:1027200017078093180790931907FF90EF90DF9099
:10273000CF90089560E070E0CB01C1CF60E070E021
:10274000CB01EBCF80E1E8E8FDE0A9E4B7E0019040
:102750000D928A95E1F7089580E1E9E4F7E0A8E8B1
:10276000BDE001900D928A95E1F70895CF92DF9236
:10277000EF92FF920F931F93CF93DF93EC01CC0F57
:10278000DD1FCC0FDD1FFE01EB58F24F20E030E0E3
:10279000A90160817181828193810E94B2FEFE0154
:1027A000E35CF84F20813181428153810E94B2FE67
:1027B0006B017C01FE01E856F24FC082D182E282B9
:1027C000F382FE01EF57F94F2591359145915491D0
:1027D0008E010F5C184F0E94B2FEF8016083718376
:1027E00082839383FE01E357F94F259135914591FB
:1027F0005491CA5EDD4FC701B6010E94B2FE6883E4
:1028000079838A839B83DF91CF911F910F91FF90F2
:10281000EF90DF90CF9008958F929F92AF92BF92EA
:10282000EF92FF920F931F93CF93DF938C014A0196
:102830005B01EC01CC0FDD1FCC0FDD1FCE018857F3
:10284000924F7C01CB58D24F288139814A815B81DC
:10285000CB01B4010E94B1FEF70120813181428198
:1028600053810E94B2FEF701608371838283938358
:1028700088829982AA82BB82C801DF91CF911F9181
:102880000F91FF90EF90BF90AF909F908F900C941E
:10289000B613089590E080E008958FB7F894909172
:1028A000E1062091E006291769F0E92FF0E0E05AEF
:1028B000F94F208130E09F5F9F779093E1068FBFB3
:1028C000C90108952FEF3FEFFACF0F931F93CF93D6
:1028D000DF93EC010E9401A60E811F8128853985B6
:1028E000011511052105310579F52C85222339F1D2
:1028F000EA8521502C8721E02E0F2A873D8523135E
:1029000001C01A86F0E03196EE0FFF1FEE0FFF1F99
:10291000EC0FFD1F02851385248535850A831B83F3
:102920002C833D83600F711F811D911D6E837F83FA
:10293000888799878C819D81892B09F0409ADF9146
:10294000CF911F910F910895601B710B820B930B18
:1029500097FDF5CF40981E821F8218861986EFCF0B
:1029600080917D0790917E07019759F40E94CAA734
:1029700070937E0760937D0710927B0710927C070F
:10298000089510927E0710927D07F6CFCF93DF93C4
:10299000EC0190E080E00E942CB3609306077093F6
:1029A0000707809308079093090781E090E00E9451
:1029B0002CB360930A0770930B0780930C079093D6
:1029C0000D0782E090E00E942CB360930E07709395
:1029D0000F07809310079093110786E097E00E94FD
:1029E000DFCEC436D10561F48CE0E6E0F7E0A8E87C
:1029F000BDE001900D928A95E1F7DF91CF910895A6
:102A0000CC0FDD1FCC0FDD1FFE01E857F24FCA5F70
:102A1000D84F88819981AA81BB8180839183A283C9
:102A2000B383EBCFCF92DF92EF92FF92CF936B0104
:102A30007C01C0919607C0929207D0929307E092D2
:102A40009407F09295072DEB37E346E855EB0F948A
:102A5000120187FD0AC02DEB37E346E855E3C701B5
:102A6000B6010E940AF81816DCF4A701960160E08E
:102A700070E080E89FE30E94ACFF60938E07709344
:102A80008F078093900790939107CC2369F082E0A1
:102A900090E0CF91FF90EF90DF90CF900C94C61410
:102AA00060E070E0CB01E9CFCF91FF90EF90DF9035
:102AB000CF9008958F929F92AF92BF92CF92EF9254
:102AC000FF920F931F93CF93DF93CDB7DEB72C9771
:102AD0000FB6F894DEBF0FBECDBF4B015C01C090B6
:102AE00057068091510790915207A0915307B091DA
:102AF000540740914D0750914E0760914F077091D8
:102B000050070091490710914A0720914B073091D7
:102B10004C0709831A832B833C834D835E836F8329
:102B2000788789879A87AB87BC878091730D8111DD
:102B30000AC0AE01475F5F4FBE016B5F7F4FCE01A2
:102B400001960E945ECF8501740125E537E0AE0154
:102B5000475F5F4FBE016B5F7F4FCE0101960E94C2
:102B600093C02C960FB6F894DEBF0FBECDBFDF9199
:102B7000CF911F910F91FF90EF90CF90BF90AF90AA
:102B80009F908F9008952F923F924F925F926F92F5
:102B90007F928F929F92AF92BF92CF92DF92EF92ED
:102BA000FF920F931F93CF93DF93CDB7DEB7EC97D0
:102BB0000FB6F894DEBF0FBECDBF69AF7AAF8BAF53
:102BC0009CAF5A8F498F3C8F2B8F8090880D9090AF
:102BD000890DA0908A0DB0908B0D8091980D9091E9
:102BE000990DA0919A0DB0919B0D8D8F9E8FAF8FF7
:102BF000B8A3A0918007B0918107BEA3ADA3BD018A
:102C0000BB0F880B990B0E9411F86FA378A789A7B7
:102C10009AA78091120790911307A0911407B09181
:102C200015078BA79CA7ADA7BEA740908C0D509011
:102C30008D0D60908E0D70908F0D80919C0D9091F8
:102C40009D0DA0919E0DB0919F0D89A39AA3ABA35A
:102C5000BCA3A0918207B0918307B8ABAFA7BD0119
:102C6000BB0F880B990B0E9411F869AB7AAB8BAB49
:102C70009CAB8091160790911707A0911807B0910F
:102C800019078DAB9EABAFABB8AF80914907909160
:102C90004A07A0914B07B0914C07898B9A8BAB8B5D
:102CA000BC8B80914D0790914E07A0914F07B0913A
:102CB00050078D8B9E8BAF8BB88F2D8D3E8D4F8D9A
:102CC00058A1C501B4010E94B1FE2FA138A549A5A4
:102CD0005AA50E94B1FE2BA53CA54DA55EA50E945C
:102CE00070F80F941E007B0193E0E916F1041CF0CC
:102CF00092E0E92EF12CF7FE02C0F12CE12C29A183
:102D00003AA14BA15CA1C301B2010E94B1FE29A965
:102D10003AA94BA95CA90E94B1FE2DA93EA94FA9D1
:102D200058AD0E9470F80F941E001B0163307105AE
:102D30001CF082E0282E312C37FE02C0312C212CD1
:102D40002D8D3E8D4F8D58A169897A898B899C89FB
:102D50000E94B1FE2FA138A549A55AA50E94B1FE37
:102D60002BA53CA54DA55EA50E9470F80F941E00F2
:102D70008B016330710514F002E010E017FF02C010
:102D800010E000E029A13AA14BA15CA16D897E89E8
:102D90008F89988D0E94B1FE29A93AA94BA95CA9F7
:102DA0000E94B1FE2DA93EA94FA958AD0E9470F80E
:102DB0000F941E006330710514F062E070E077FF3D
:102DC00002C070E060E0E016F10621F562157305BF
:102DD00009F0A6C069AD7AAD8BAD9CAD0E945A15C5
:102DE000EC960FB6F894DEBF0FBECDBFDF91CF914A
:102DF0001F910F91FF90EF90DF90CF90BF90AF9019
:102E00009F908F907F906F905F904F903F902F900A
:102E10000C94AC130E151F050CF082C03E2D6215EC
:102E200073050CF467C1262FE016F10609F082C085
:102E30006215730579F2822F022E000C990B01E0C6
:102E400010E002C0000F111F2A95E2F72B8D3C8D78
:102E500020233123232B09F4BDCF20E1E9E4F7E05F
:102E6000DE01119601900D922A95E1F720918607D7
:102E700030918707829FB001839F700D929F700DE4
:102E80001124AFA5B8A96A0F7B1F072E000C880B71
:102E9000990B0E9411F829A13AA14BA15CA10E94B3
:102EA000B2FE60934D0770934E0780934F07909347
:102EB0005007A30192010E94B1FE6B017C01A301A6
:102EC00092016D897E898F89988D0E94B1FE9B0148
:102ED000AC01C701B6010E94ACFF6B017C01A501EA
:102EE000940169897A898B899C890E94B1FEA70126
:102EF00096010E9470F8A50194010E94B2FE6093B1
:102F0000490770934A0780934B0790934C070095AD
:102F100010952B8D3C8D202331233C8F2B8F7EC031
:102F2000302F621573050CF07ECF222DE016F106CE
:102F300009F481CF832F032E000C990B01E010E0E0
:102F400002C0000F111F3A95E2F7498D5A8D4023B8
:102F50005123452B09F46CCF20E1E9E4F7E0DE01D1
:102F6000119601900D922A95E1F7209184073091F6
:102F70008507829FB001839F700D929F700D112471
:102F80002DA13EA1620F731F072E000C880B990B19
:102F90000E9411F82D8D3E8D4F8D58A10E94B2FEDA
:102FA0006093490770934A0780934B0790934C07AF
:102FB000A50194010E94B1FE6B017C01A501940161
:102FC00069897A898B899C890E94B1FE9B01AC0139
:102FD000C701B6010E94ACFF6B017C01A301920105
:102FE0006D897E898F89988D0E94B1FEA701960117
:102FF0000E9470F8A30192010E94B2FE60934D07F7
:1030000070934E0780934F0790935007009510954B
:10301000898D9A8D802391239A8F898F8090900D2E
:103020009090910DA090920DB090930DA5019401F8
:103030006091510770915207809153079091540706
:103040000E94B1FEA70196010E9470F8A5019401AB
:103050000E94B2FE6093510770935207809353070A
:10306000909354078090940D9090950DA090960D9C
:10307000B090970DA5019401609155077091560786
:1030800080915707909158070E94B1FEA7019601C1
:103090000E9470F8A50194010E94B2FE609355074A
:1030A0007093560780935707909358072B8D3C8D4C
:1030B000498D5A8D69AD7AAD8BAD9CAD0E94C3151B
:1030C00089899A89AB89BC8989839A83AB83BC83BC
:1030D0008D899E89AF89B88D8D839E83AF83B88794
:1030E00080E1FE013196A9E4B7E001900D928A9546
:1030F000E1F76BCD222D1ECFCF92EF92FF920F936F
:103100001F93CF93DF93CDB7DEB72C970FB6F8940C
:10311000DEBF0FBECDBFC09057068091900D90913D
:10312000910DA091920DB091930D40918C0D509105
:103130008D0D60918E0D70918F0D0091880D109105
:10314000890D20918A0D30918B0D09831A832B8371
:103150003C834D835E836F83788789879A87AB87AB
:10316000BC878091730D81110AC0AE01475F5F4F2C
:10317000BE016B5F7F4FCE0101960E945ECFE09053
:103180005902F0905A0200915B0210915C0224E90E
:103190003DE0AE01475F5F4FBE016B5F7F4FCE01E9
:1031A00001960E9493C02C960FB6F894DEBF0FBE16
:1031B000CDBFDF91CF911F910F91FF90EF90CF90F6
:1031C00008958F929F92AF92BF92CF92EF92FF920B
:1031D0000F931F93CF93DF93CDB7DEB72C970FB626
:1031E000F894DEBF0FBECDBFFC012091D1178091B6
:1031F000D01790E001968F7099272817190609F4C7
:1032000050C0C0905706EE0FFF1FEE0FFF1FEB5888
:10321000FD4F20E030E040E752E46081718182811F
:1032200093810E94ACFF4B015C018091880D9091CD
:10323000890DA0918A0DB0918B0D89839A83AB8300
:10324000BC8380918C0D90918D0DA0918E0DB091CD
:103250008F0D8D839E83AF83B8878091900D909161
:10326000910DA091920DB091930D89879A87AB87AC
:10327000BC87AE01475F5F4FBE016B5F7F4FCE01E2
:1032800001960E945ECF8501740124E93DE0AE0104
:10329000475F5F4FBE016B5F7F4FCE0101960E947B
:1032A00093C02C960FB6F894DEBF0FBECDBFDF9152
:1032B000CF911F910F91FF90EF90CF90BF90AF9063
:1032C0009F908F900895809150069091510600979D
:1032D00031F04AE050E070E060E00C945FF560E0AF
:1032E00070E0CB0108950E94631997FD0CC00E9405
:1032F00063196F3F71058105910509F034F40E944F
:103300006319862F089580E008958FEF08958091C6
:10331000500690915106892B41F00E94731991E05B
:10332000811101C090E0892F089591E0FCCF4F9268
:103330005F926F927F928F929F92AF92BF92CF9245
:10334000DF92EF92FF920F931F93CF93DF93CDB74E
:10335000DEB768970FB6F894DEBF0FBECDBF0E94F0
:1033600001A66B017C018091690590916A05A0918D
:103370006B05B0916C058C159D05AE05BF0508F079
:1033800048C180916202882309F443C180916F058E
:1033900090917005892B09F0A1C28091F70D909151
:1033A000F80D2091FC0D222309F489C11816190685
:1033B0000CF085C18091B1059091B205892B09F07F
:1033C0007CC084E096E09093761B8093751B80EA26
:1033D00090E89093781B8093771B87E08093691B1C
:1033E00012E810936C1B80EA90E0A0E0B0E08093BC
:1033F0006D1B90936E1BA0936F1BB093701B0E946C
:103400002A9E8091500290915102A0915202B09157
:1034100053020097A105B10509F012C11092761B65
:103420001092751B05E00093691B10936C1B8AE8D2
:1034300090E1A0E0B0E080936D1B90936E1BA09391
:103440006F1BB093701B0E942A9E89E090E09093BE
:10345000761B8093751B0093691B10936C1B8CE883
:1034600090E1A0E0B0E080936D1B90936E1BA09361
:103470006F1BB093701B0E942A9E60915002709146
:103480005102809152029091530228E830E140E0CD
:1034900050E00E94CD9E6091500270915102809147
:1034A000520290915302982F872F762F662721EA98
:1034B00030E040E050E00E94CD9E8091B1059091B7
:1034C000B205853691050CF0DBC09093761B809396
:1034D000751B85E08093691B82E880936C1B80E0FC
:1034E00090E1A0E0B0E080936D1B90936E1BA093E1
:1034F0006F1BB093701B0E942A9E6EE170E080E00B
:1035000090E00E9470A58091B1059091B20501965E
:103510009093B2058093B105893C91050CF479C074
:1035200081E090E09093700580936F05C090FE0D50
:10353000D090FF0D10E000E0F12CE12CCE14DF0460
:1035400009F467C061ED72E1C8018854904F0F948F
:103550004E0298012E5E3F4F892B09F0ABC081E0EF
:1035600080936202C801805B914F7C01FC01019055
:103570000020E9F78E1B9F0B439697FD01968C0167
:103580001595079540E050E260E070E0C701101625
:103590001106C4F4FE0131966F0184E111928A95FF
:1035A000E9F7A80161E573E0C6010F946C02B70169
:1035B000C601800F911F0F94570240E050E260E077
:1035C00070E0C6010E94F29F80912011882309F4C7
:1035D00068C081E09AE59093761B8093751B84E226
:1035E00090E09093781B8093771B87E08093691B12
:1035F00082E880936C1B84E890E0A0E0B0E08093C8
:103600006D1B90936E1BA0936F1BB093701B0E9459
:103610002A9E68960FB6F894DEBF0FBECDBFDF912D
:10362000CF911F910F91FF90EF90DF90CF90BF90BF
:10363000AF909F908F907F906F905F904F90089584
:103640000196A11DB11DBC01CD01B5E096958795F0
:1036500077956795BA95D1F76150710981099109FC
:103660002AE830E140E050E00E94CD9E88E090E002
:103670009093761B8093751B85E08093691BEDCE3C
:10368000845691099093761B8093751B85E08093F7
:10369000691B82E880936C1B81E090E1A0E0B0E0C0
:1036A00022CF81E09AE59093761B8093751B8CE482
:1036B00090E097CFFFEFEF1AFF0A89013FCF892BE8
:1036C00009F00CC18091B1059091B205892B09F0E8
:1036D0007CC084E096E09093761B8093751B80EA13
:1036E00090E89093781B8093771B87E08093691B09
:1036F00012E810936C1B80EA90E0A0E0B0E08093A9
:103700006D1B90936E1BA0936F1BB093701B0E9458
:103710002A9E8091500290915102A0915202B09144
:1037200053020097A105B10509F09EC01092761BC7
:103730001092751B05E00093691B10936C1B8AE8BF
:1037400090E1A0E0B0E080936D1B90936E1BA0937E
:103750006F1BB093701B0E942A9E89E090E09093AB
:10376000761B8093751B0093691B10936C1B8CE870
:1037700090E1A0E0B0E080936D1B90936E1BA0934E
:103780006F1BB093701B0E942A9E60915002709133
:103790005102809152029091530228E830E140E0BA
:1037A00050E00E94CD9E6091500270915102809134
:1037B000520290915302982F872F762F662721EA85
:1037C00030E040E050E00E94CD9E8091B1059091A4
:1037D000B205853691050CF067C09093761B8093F7
:1037E000751B85E08093691B82E880936C1B80E0E9
:1037F00090E1A0E0B0E080936D1B90936E1BA093CE
:103800006F1BB093701B0E942A9E6EE170E080E0F7
:1038100090E00E9470A58091B1059091B20501964B
:103820009093B2058093B105893C91050CF4F1CEDB
:1038300081E090E09093700580936F0521E02093E4
:1038400062021092F00D20EA3FE030934E0D20937B
:103850004D0D209120112223C1F121E03AE5309352
:10386000761B2093751BBDCE0196A11DB11DBC0119
:10387000CD01E5E09695879577956795EA95D1F71F
:1038800061507109810991092AE830E140E050E076
:103890000E94CD9E88E090E09093761B8093751BEC
:1038A00085E08093691B61CF845691099093761BC4
:1038B0008093751B85E08093691B82E880936C1B65
:1038C00081E090E1A0E0B0E096CF81E09AE59093AE
:1038D000761B8093751B8DE290E083CE8091F00D76
:1038E000882309F4DAC18091590790915A07A09171
:1038F0005B07B0915C07892B8A2B8B2B09F4CDC118
:103900000E94CAA74B015C0120E13EE040E050E08C
:103910000E944EFE2D8B3E8B4F8B588F2B013C010E
:1039200020E130E140E050E06D897E898F89988DFB
:103930000E94CD9EC301B2012CE330E040E050E094
:103940000E944EFECA01B90122E130E140E050E0A0
:103950000E94CD9E80916F18882309F425C1109193
:103960003D1A112309F479C08091061B9091071B21
:10397000A091081BB091091B0097A105B10509F49E
:103980006CC0BC01CD016D597F4F8F4F9F4F24E616
:1039900030E040E050E00E944EFE60910A1B7091C2
:1039A0000B1B80910C1B90910D1B0E944EFE809171
:1039B0000002909101022817190609F4F5C011239D
:1039C00009F486C38091061B9091071BA091081BE8
:1039D000B091091B0097A105B10509F479C3BC0199
:1039E000CD016D597F4F8F4F9F4F24E630E040E06F
:1039F00050E00E944EFE60910A1B70910B1B80915B
:103A00000C1B90910D1B0E944EFE222309F460C3F3
:103A10002F5F20936805233310F530E0220F331F0A
:103A20003093761B2093751B05E00093691B12E809
:103A300010936C1B8EE090E1A0E0B0E080936D1BD2
:103A400090936E1BA0936F1BB093701B0E942A9ED5
:103A50001092761B1092751B27C020E0A8CF84E639
:103A600090E09093761B8093751B05E00093691B93
:103A700012E810936C1B8EE090E1A0E0B0E0809320
:103A80006D1B90936E1BA0936F1BB093701B0E94D5
:103A90002A9E8091680590E082539048880F991F74
:103AA0009093761B8093751B0093691B10936C1B7E
:103AB0008FE090E1A0E0B0E080936D1B90936E1BCF
:103AC000A0936F1BB093701B0E942A9E80913D1A99
:103AD000882309F402C38091061B9091071BA091D3
:103AE000081BB091091B0097A105B10509F4F5C2A7
:103AF000BC01CD016D597F4F8F4F9F4F24E630E0C1
:103B000040E050E00E944EFE60910A1B70910B1B3A
:103B100080910C1B90910D1B0E944EFE30E0309363
:103B2000761B2093751B85E08093691B82E8809348
:103B30006C1B86E190E1A0E0B0E080936D1B909358
:103B40006E1BA0936F1BB093701B0E942A9E8091E6
:103B50003D1A882309F4C3C28091061B9091071B6C
:103B6000A091081BB091091B0097A105B10509F4AC
:103B7000B6C2BC01CD016D597F4F8F4F9F4F24E6D8
:103B800030E040E050E00E944EFE60910A1B7091D0
:103B90000B1B80910C1B90910D1B0E944EFE30E080
:103BA000309301022093000220916F0D3091700D2F
:103BB0004091710D5091720D6091EB0D7091EC0D73
:103BC0008091ED0D9091EE0D0E940AF8882391F0FE
:103BD0000E94C6DA8091EB0D9091EC0DA091ED0D55
:103BE000B091EE0D80936F0D9093700DA093710DB9
:103BF000B093720D80910602882309F44EC0809123
:103C00006F18882309F449C020E030E040E050E418
:103C10006091900D7091910D8091920D9091930D06
:103C20000F9412011816CCF580917D0790917E07B4
:103C3000845D9E4F092E000CAA0BBB0B88159905BD
:103C4000AA05BB0550F580914F02882321F1809190
:103C5000850D9091860D9093B4058093B3051092D5
:103C6000860D1092850D1092761B1092751B85E0C3
:103C70008093691B82E880936C1B8AE390E1A0E04B
:103C8000B0E080936D1B90936E1BA0936F1BB0935D
:103C9000701B0E942A9E109206026091FF1670917E
:103CA000001780910117909102170F941E007093D6
:103CB000761B6093751B05E00093691B12E8109357
:103CC0006C1B86E390E1A0E0B0E080936D1B9093C5
:103CD0006E1BA0936F1BB093701B0E942A9E609175
:103CE000610D7091620D8091630D9091640D0F9440
:103CF0001E007093761B6093751B0093691B1093D5
:103D00006C1B8CE390E1A0E0B0E080936D1B90937E
:103D10006E1BA0936F1BB093701B0E942A9E409154
:103D20006D0D50916E0D2091850D3091860D809115
:103D3000FD169091FE164217530741F42091650D30
:103D40003091660D2817390709F49CC00E9402A91A
:103D50008091850D9091860D8E37910514F08DE739
:103D600090E09093860D8093850D0E9408A9809124
:103D7000FD169091FE169093761B8093751B05E0BF
:103D80000093691B12E810936C1B84E390E1A0E0A0
:103D9000B0E080936D1B90936E1BA0936F1BB0934C
:103DA000701B0E942A9E8091850D9091860D9093A4
:103DB000761B8093751B0093691B10936C1B8AE321
:103DC00090E1A0E0B0E080936D1B90936E1BA093F8
:103DD0006F1BB093701B0E942A9E80916F188111F7
:103DE00041C060916D0D70916E0D4091850D5091A7
:103DF000860D6417750764F02091650D3091660D8E
:103E00008091FD169091FE16281739070CF06CC1B1
:103E100080912011882309F464C181E090E090939F
:103E2000761B8093751B85E08093691B82E88093E5
:103E30006C1B84E190E1A0E0B0E080936D1B909357
:103E40006E1BA0936F1BB093701B0E942A9E109252
:103E50004E0D10924D0D8091F40D811101C081E045
:103E60008093F40D8091850D9091860D90936E0D49
:103E700080936D0D8091FD169091FE169093660DC6
:103E80008093650D80919005811105C08091920508
:103E9000882309F4DBC00091FD161091FE16011570
:103EA000110509F120E030E048EC52E46091FF1682
:103EB0007091001780910117909102170E9470F87D
:103EC0004B015C01B801110F880B990B0E9411F88E
:103ED0009B01AC01C501B4010E94ACFF0F94250009
:103EE0006536710510F064E670E07093761B6093A0
:103EF000751B05E00093691B12E810936C1B84E2AC
:103F000090E1A0E0B0E080936D1B90936E1BA093B6
:103F10006F1BB093701B0E942A9E6091FD167091DA
:103F2000FE16072E000C880B990B0E9411F89B01BE
:103F3000AC016091FF16709100178091011790916C
:103F400002170F94120187FD5DC1809190058823AF
:103F500009F405C1109291051092900520E030E01F
:103F600040E251E460918705709188058091890550
:103F700090918A050E9470F80F941E007093761B32
:103F80006093751B0093691B10936C1B84E590E193
:103F9000A0E0B0E080936D1B90936E1BA0936F1B0D
:103FA000B093701B0E942A9E20E030E040E251E472
:103FB00060918B0570918C0580918D0590918E0597
:103FC0000E9470F80F941E007093761B6093751B0F
:103FD0000093691B10936C1B88E590E1A0E0B0E0B2
:103FE00080936D1B90936E1BA0936F1BB093701BFF
:103FF0000E942A9E80912011882309F4A7C081E0A5
:104000009AE59093761B8093751B87E190E09093DF
:10401000781B8093771B87E08093691B10936C1B40
:1040200084E890E0A0E0B0E080936D1B90936E1B5D
:10403000A0936F1BB093701B0E942A9E83E090E0B8
:104040000E94E11880918605809357068091F10DBA
:10405000882329F180918F0591E0980F90938F0527
:1040600090E09093761B8093751B85E08093691B8D
:1040700082E880936C1B82E490E1A0E0B0E0809342
:104080006D1B90936E1BA0936F1BB093701B0E94CF
:104090002A9E80918F058A3010F010928F056091D2
:1040A0004D0D70914E0D072E000C880B990B60532F
:1040B000784F8F4F9F4FC60ED71EE81EF91EC09235
:1040C0006905D0926A05E0926B05F0926C05A1CA71
:1040D0001092761B1092751BA7CC20E01FCD20E01C
:1040E0005ECD8DE090E09BCE4617570724F08217F7
:1040F00093070CF0B7CE80912011882321F188E03E
:1041000090E09093761B8093751B85E08093691BEC
:1041100082E880936C1B84E190E1A0E0B0E08093A2
:104120006D1B90936E1BA0936F1BB093701B0E942E
:104130002A9E10924E0D10924D0D8091F40D81111A
:104140008FCE82E08DCE84E190E0DBCF81E09AE5F6
:104150009093761B8093751B81E490E058CF8091FB
:104160009205882309F44EC0109292051092B20570
:104170001092B10581E08093F00D84E090E090937F
:10418000761B8093751B0093691B10936C1B8EE844
:1041900090E1A0E0B0E080936D1B90936E1BA09324
:1041A0006F1BB093701B0E942A9E80912011882360
:1041B00001F181E09AE59093761B8093751B88E06E
:1041C00090E09093781B8093771B87E08093691B26
:1041D00010936C1B84E890E0A0E0B0E080936D1B2E
:1041E00090936E1BA0936F1BB093701B0E942A9E2E
:1041F0002DCF81E09AE59093761B8093751B83E524
:1042000090E0DFCF80919205882309F41FCF809141
:10421000B1059091B2059C012F5F3F4F3093B205DD
:104220002093B10565E070E00F94E4019093761B54
:104230008093751B85E08093691B82E880936C1BDB
:104240008EE890E1A0E0B0E0C9CFAF92BF92CF92EC
:10425000DF92EF92FF920F931F93CF93DF931F9202
:10426000CDB7DEB76C018B01590180917F078111B9
:104270001BC07B01E40EF51EF601808191810E9436
:1042800028FE8983F80181938F01BE016F5F7F4F04
:10429000C5010E9441A0F601808191810196918320
:1042A0008083E016F10641F70F90DF91CF911F91C7
:1042B0000F91FF90EF90DF90CF90BF90AF90089557
:1042C0000E943CBF0E9432D00E94EF1290E080E03A
:1042D0000E94B61381E090E00E94B61382E090E065
:1042E0000E94B61360919207709193078091940792
:1042F000909195070E9412150E9457A00C943413B8
:10430000FC0120E03EE2DB014D91BD01403249F06D
:10431000283011F430833196DB0111974C914083A2
:1043200031962F5F2B3079F71082089561E0FC0100
:1043300080810C9401A38EBD0DB407FEFDCF0895BE
:104340008FEF8EBD0DB407FEFDCF8EB508958F9211
:104350009F92AF92BF92EF92FF920F931F93CF93D2
:104360007C01C62F49015A01FC019281892F806A84
:1043700086958CBD90FD03C081E0963009F480E005
:104380008DBD60E0F70180810E9401A38CE291E085
:104390000E9470A68C2F80640E949B2108E110E08F
:1043A000D501C401002E04C0B695A79597958795B1
:1043B0000A94D2F70E949B2108501109083FFFEF91
:1043C0001F0771F785E9CC2321F087E8C83009F091
:1043D0008FEF0E949B21CC3011F40E94A021C0E0FD
:1043E0000E94A021F701838387FF04C0CF3F11F013
:1043F000CF5FF6CFCF911F910F91FF90EF90BF90BD
:10440000AF909F908F9008950F931F93CF93DF935A
:10441000EC0189018C81833039F089E0440F551F0C
:10442000661F771F8A95D1F79A01AB0168E1CE012B
:104430000E94A721882319F086E089833AC08EEF75
:104440008EBDF801C8019E5F0DB407FEFDCF20812F
:104450002EBD0DB407FEFDCF21812EBD3296E8178B
:10446000F90791F70DB407FEFDCF8FEF0E949B2156
:104470008FEF0E949B210E94A0218B838F7185303A
:1044800099F488E592E00E9470A6182F87E1112325
:10449000A1F220E030E0A9016DE0CE010E94A72149
:1044A000882361F086E1C9CF83E18983CE010E9430
:1044B0009621CE010E94962110E007C00E94A02103
:1044C0008111F0CFCE010E949621812FDF91CF91F3
:1044D0001F910F910895CF9380917615C1E08823A5
:1044E000A1F040916E1550916F156091701570910B
:1044F00071152EE633E180917715909178150E9421
:104500000422C82F811104C0C0E08C2FCF910895E0
:1045100040917215509173156091741570917515D5
:10452000411551056105710591F02EE633E1809149
:104530007715909178150E940422882329F3109210
:1045400072151092731510927415109275151092C1
:104550007615DBCFEF92FF920F931F93CF93DF93EC
:10456000EC0179018C81833039F089E0440F551FCB
:10457000661F771F8A95D1F79A01AB0161E1CE01E1
:104580000E94A721882339F084E08983CE010E940C
:10459000962180E03BC00E9401A68B010E94A021D1
:1045A0008B838F3F81F40E9401A6601B710B6D32DB
:1045B0007140A0F381E18983CE010E9496218FEFA3
:1045C0000E949B21E6CF8E3F11F08FE0F4CF8FEF5A
:1045D0008EBDF701D701A150BE4F0DB407FEFDCF30
:1045E0009EB591938EBDAE17BF07B9F70DB407FE08
:1045F000FDCF8EB58C930E94A0210E94A021CE01F8
:104600000E9496218FEF0E949B2181E0DF91CF9144
:104610001F910F91FF90EF900895CF92DF92EF924C
:10462000FF92CF936B017C01C42F80916E15909106
:104630006F15A0917015B09171158C159D05AE0583
:10464000BF0501F10E946B22811108C0C0E08C2FD0
:10465000CF91FF90EF90DF90CF9008952EE633E159
:10466000B701A60180917715909178150E94AA2232
:10467000882361F3C0926E15D0926F15E092701589
:10468000F0927115CC2321F081E080937615DFCF75
:10469000C1E0DDCF4F925F926F927F928F929F9297
:1046A000AF92BF92CF92DF92EF92FF920F931F9340
:1046B000CF93DF93EC01423051056105710590F411
:1046C00080E0DF91CF911F910F91FF90EF90DF90ED
:1046D000CF90BF90AF909F908F907F906F905F90A2
:1046E0004F90089589859A85AB85BC850196A11D5B
:1046F000B11D84179507A607B70710F38F8980317E
:10470000C9F5852E962EA72EBB248B899C89AD8951
:10471000BE89880E991EAA1EBB1E280139016A0196
:104720007B0141E0C501B4010E940D23882341F2C1
:104730009F89903181F5DD24EE24FF24F601EE0FF0
:10474000FF1FE259FC4E118300839A89923008F4CE
:10475000B8CF4D815E816F817885840E951EA61E2F
:10476000B71E8092721590927315A0927415B09234
:104770007515A7CF803209F0A3CF8B899C89AD89AD
:10478000BE894A015B01E7E0B694A79497948794A9
:10479000EA95D1F7BECFE894C7F8DD24EE24FF24D4
:1047A000F601EE0FFF1FEE0FFF1FE259FC4E408295
:1047B000518262827382C9CFCF92DF92EF92FF92D1
:1047C0000F931F93CF93DF93FC0181859285A3857F
:1047D000B4850196A11DB11D84179507A607B707DB
:1047E00050F480E0DF91CF911F910F91FF90EF90F7
:1047F000DF90CF90089587898031A9F5BB27A72F37
:10480000962F852FC388D488E588F6888C0D9D1D4A
:10481000AE1DBF1DE9016A017B018F0140916E153C
:1048200050916F15609170157091711584179507EF
:10483000A607B70749F5F8018789803169F5B701FF
:10484000A601552766277727440F551F42595C4E0E
:10485000FA0180819181B0E0A0E088839983AA83E6
:10486000BB8381E0BFCF803209F0BBCFC388D4883F
:10487000E588F688DB01CA01C7E0B695A79597954C
:104880008795CA95D1F7C2CF40E0BC01CD010E9407
:104890000D238111D0CFA5CFB701A6014F775527A2
:1048A00066277727440F551F440F551F42595C4E0A
:1048B000FA0180819181A281B381BF70CECF4F92E6
:1048C0005F926F927F92AF92BF92CF92DF92EF9200
:1048D000FF920F931F93CF93DF9300D01F92CDB71A
:1048E000DEB78C0149835A836B837C835901C12CC9
:1048F000D12C7601412C82E0582E612C712C4981FB
:104900005A816B817C819E012F5F3F4FC8010E94BD
:10491000DC23882319F1F8018585A301920104C0E5
:10492000220F331F441F551F8A95D2F7DA01C901A0
:10493000C80ED91EEA1EFB1E49815A816B817C81FB
:1049400087898031F1F481E0483F5F4F610571054F
:10495000B0F2F501C082D182E282F3820F900F9013
:104960000F900F90DF91CF911F910F91FF90EF90DB
:10497000DF90CF90BF90AF907F906F905F904F90FF
:10498000089581E0483F5F4F6F4F7F4008F4B7CFF5
:10499000E0CF0F931F93CF93DF93FC01238122235A
:1049A00031F080E0DF91CF911F910F9108958B013D
:1049B000EC01FB018789803139F582E08B831D8A08
:1049C0001E8A1F8A188E808D918DB0E0A0E025E0B0
:1049D000880F991FAA1FBB1F2A95D1F7898B9A8B25
:1049E000AB8BBC8B1A8F098F81E089831C821D825F
:1049F0001E821F82188619861A861B861C861D86B3
:104A00001E861F86188ACECF803259F683E08B83AC
:104A1000428D538D648D758D4D8B5E8B6F8B788F32
:104A20009E012F5E3F4FC8010E945F248111DACFA3
:104A3000B8CF8F929F92AF92BF92CF92DF92EF92B8
:104A4000FF920F931F93CF93DF93EC018B81811122
:104A50000EC080E0DF91CF911F910F91FF90EF90FA
:104A6000DF90CF90BF90AF909F908F90089509896D
:104A70001A892B893C89041715072607370748F33D
:104A80004A015B01823031F488869986AA86BB860A
:104A900081E0E0CF81149104A104B10449F41C82A7
:104AA0001D821E821F82188619861A861B86F0CFE9
:104AB000088519852A853B85E98DFA8D858590E0E5
:104AC0000996B901A8014150510961097109082EDF
:104AD00004C076956795579547950A94D2F7750166
:104AE0006401E1E0CE1AD108E108F10804C0F694AF
:104AF000E794D794C7948A95D2F7C416D506E606EC
:104B0000F70620F0012B022B032B11F58D899E89CE
:104B1000AF89B88D8C839D83AE83BF838E010C5F7C
:104B20001F4FC114D104E104F10409F4ADCF4C814D
:104B30005D816E817F819801898D9A8D0E94DC2331
:104B400091E0C91AD108E108F1088111EACF81CFBB
:104B5000C41AD50AE60AF70AE1CF40E050E0BA01EC
:104B60000C9419253F924F925F926F927F928F9291
:104B70009F92AF92BF92CF92DF92EF92FF920F93EC
:104B80001F93CF93DF93CDB7DEB72C970FB6F89472
:104B9000DEBF0FBECDBF5C01DC0159968D909C90AD
:104BA000F40181859285A385B4859C01AD012F5FB9
:104BB0003F4F4F4F5F4F29873A874B875C87D5011F
:104BC00014964D905D906D907C9017974114510410
:104BD0006104710409F459C0BFEF4B1A5B0A6B0AF8
:104BE0007B0A312C730162011D821E821F8218868E
:104BF000F40181859285A385B4852D813E814F8105
:104C00005885281739074A075B0708F056C0898579
:104C10009A85AB85BC858C159D05AE05BF0550F406
:104C200082E0C82ED12CE12CF12C92E0492E512C9F
:104C3000612C712C9E012F5F3F4FB701A601C4016B
:104C40000E94DC238823C9F189819A81AB81BC81D0
:104C5000892B8A2B8B2B01F1260137019FEF491AF3
:104C6000590A690A790A2D813E814F8158852F5F43
:104C70003F4F4F4F5F4F2D833E834F8358873FEF0A
:104C8000C31AD30AE30AF30AB3CF4080518062808B
:104C9000738033243394A6CFC414D504E604F704F8
:104CA00011F70FEF1FEF2FEF3FE0B701A601C4018F
:104CB0000E944A23782E81111AC0712C872D2C96C0
:104CC0000FB6F894DEBF0FBECDBFDF91CF911F911D
:104CD0000F91FF90EF90DF90CF90BF90AF909F909B
:104CE0008F907F906F905F904F903F900895F50167
:104CF00044815581668177814115510561057105B2
:104D000039F097018601C4010E944A238823A9F241
:104D1000D5011496CD92DD92ED92FC921797332037
:104D200051F0D701C6010196A11DB11DF401808388
:104D30009183A283B383F50185899689A789B08D74
:104D4000892B8A2B8B2B09F0B9CFC58AD68AE78AA3
:104D5000F08E818180688183B1CFCF93DF93EC01A6
:104D6000462F41706C857D858E859F850E940D2321
:104D7000882351F0888920E2829FC0011124825942
:104D80009C4EDF91CF91089590E080E0FACFCF93D1
:104D9000DF93EC018B81882349F1898187FF22C051
:104DA00061E0CE010E94AD26FC01892BF9F08081E3
:104DB000853EE1F08B81823040F489899A89AB8904
:104DC000BC89848F958FA68FB78F8D899E89938F8D
:104DD000828F8D899E89AF89B88DB58BA48B89818F
:104DE0008F778983DF91CF910C946B2281E0888348
:104DF00080E0DF91CF9108952F923F924F925F9282
:104E00006F927F928F929F92AF92BF92CF92DF92DA
:104E1000EF92FF920F931F93CF93DF9300D01F92D7
:104E2000CDB7DEB78C014B011A01DC0113968C91D2
:104E30001397813009F0CAC011968C9181FFC6C0CA
:104E400082FDB0C06101D80118964D915D916D91C0
:104E50007C911B97C114D10409F41AC159968D9104
:104E60009C915A97FC0174802FEF270D2A013B017A
:104E700039E076946794579447943A95D1F7722E17
:104E800074207A01F1E0FF22711020C0E114F104D6
:104E9000E9F414964D915D916D917C9117974115B0
:104EA00051056105710509F097C055968D919D9149
:104EB0000D90BC91A02D0097A105B10509F0A5C0EA
:104EC000C8010E94B225882309F480C080E092E0E6
:104ED0008E199F0956018C159D0508F45C01D801B7
:104EE00059964D915C915A9714968D919D910D9084
:104EF000BC91A02D0297A109B109FA01258504C032
:104F0000880F991FAA1FBB1F2A95D2F74685578580
:104F100060897189840F951FA61FB71F9C01AD0181
:104F2000270D311D411D511D29013A01A11432E007
:104F3000B30609F078C080916E1590916F15A0911D
:104F40007015B0917115481659066A067B0669F40A
:104F5000109276158FEF9FEFDC0180936E15909382
:104F60006F15A0937015B09371159401B301A20150
:104F700080917715909178150E940422882331F151
:104F8000F80180859185A285B3858A0D9B1DA11DA1
:104F9000B11D80879187A287B3878A0C9B1CCA1892
:104FA000DB0851CFF8014189528963897489808572
:104FB0009185A285B385481759076A077B0709F4CD
:104FC00041CFC8010E94192581113CCF81E0D80151
:104FD0008C938FEF9FEF72C09E012F5F3F4F0E9417
:104FE000DC23882399F389819A81AB81BC81F80104
:104FF000218D328DF9012789203169F4883FFFEF37
:105000009F07A105B10508F05BCFF8018483958364
:10501000A683B7835BCF883F2FEF9207A2072FE0CD
:10502000B20798F34DCFE114F10451F5D801189669
:105030004D915D916D917C911B9751968D919D91B4
:105040000D90BC91A02D481759076A077B07C0F047
:105050000E946B22882309F4B9CF81E080937615F2
:1050600040926E1550926F15609270157092711586
:10507000A501B401C70182599C4E0F941C0280CF38
:1050800041E0C301B2010E940D238111F1CF9ECFF7
:10509000F80181899289A389B48984179507A607A5
:1050A000B70738F48181418B528B638B748B806896
:1050B0008183F801818183FD18C0C1010F900F9099
:1050C0000F900F90DF91CF911F910F91FF90EF9074
:1050D000DF90CF90BF90AF909F908F907F906F9018
:1050E0005F904F903F902F900895C8010E94C7266F
:1050F0008111E3CF6BCFCF93DF931F92CDB7DEB794
:10510000698341E050E0BE016F5F7F4F04960E94CB
:10511000FC260F90DF91CF910895CF93DF93EC01A0
:105120000E94C7261B82DF91CF910895FC01238145
:1051300021110C948D280895CF93DF93EB01FC018E
:105140002381211104C080E0DF91CF910895225086
:10515000223028F48FE28883198281E0F5CF60E065
:105160000E94AD26009779F3DC0160E080E09EE2CA
:105170002D91203299F0883031F49E01260F311D97
:10518000F90190836F5F9E01260F311DAD014150E3
:105190005109FA014081F90140836F5F8F5F8B30C5
:1051A00039F7FE01E60FF11D1082D7CF2F923F9203
:1051B0004F925F926F927F928F929F92AF92BF9227
:1051C000CF92DF92EF92FF920F931F93CF93DF93D3
:1051D00000D01F92CDB7DEB79C838B834B017A0141
:1051E000DC0113968C91811119C08FEF9FEF0F9006
:1051F0000F900F900F90DF91CF911F910F91FF9023
:10520000EF90DF90CF90BF90AF909F908F907F9066
:105210006F905F904F903F902F900895EB81FC81AD
:10522000818180FFE2CF01891289238934894085F9
:10523000518562857385C701B0E0A0E0280139017E
:10524000441A550A660A770A481659066A067B0602
:1052500018F47801E41AF50A67018B819C810496A1
:105260009A838983612C32E0732EC114D10409F42E
:10527000B7C0AB81BC8118964D915D916D917C91C9
:105280001B975A01B1E0BB22EB81FC81818D928D8D
:105290001A012B0129E056944794379427942A95B4
:1052A000D1F72381223091F5DC015A966D917D91E1
:1052B0008D919C915D97620D731D841D951D8301D9
:1052C0000A191B09C016D10608F486010115B2E0BF
:1052D0001B0771F420916E1530916F154091701578
:1052E00050917115621773078407950709F059C02B
:1052F00040E00E940D23882309F477CFB50162595D
:105300007C4EA801C4010F941C0257C0FC011481FB
:1053100011501221A114B10481F411110EC0452BBA
:10532000462B472B79F5EB81FC8185899689A789E6
:10533000B08D84839583A683B783AB81BC81599656
:10534000ED91FC915A9714966D917D918D919C9160
:1053500017976250710981099109258504C0660F6C
:10536000771F881F991F2A95D2F726853785408990
:105370005189620F731F841F951F610F711D811D5D
:10538000911D9DCFAB81BC8114964D915D916D9126
:105390007C91179729813A810E94DC238111CDCF1E
:1053A00024CF9401AB01BC018091771590917815C1
:1053B0000E94AA22882309F418CF800E911EEB8147
:1053C000FC8180859185A285B385800F911FA11DE9
:1053D000B11D80879187A287B387C01AD10A45CFB4
:1053E000C70105CFDF92EF92FF920F931F93CF93E8
:1053F000DF938C01EB017A018DE0D82E40E250E082
:10540000BE01C8010E94D6288032910571F021E0CA
:10541000892B09F420E0822F8195DF91CF911F9194
:105420000F91FF90EF90DF90089528812223C1F122
:10543000253E21F32E3211F3E114F10439F13B85BD
:105440003F733F3019F54A8D5B8D452BF9F42F7171
:105450003FEF320F3230D0F42150330BD29EC001D7
:10546000D39E900D1124D701A80FB91FFE0120E093
:10547000AD01253078F431813D932F5F32962D3088
:10548000C1F7288126FF02C0FA0115862B8523FD6E
:10549000B5CFC3CF2B3010F43481EECF3681ECCFB3
:1054A00080E0BBCF4F925F926F927F92AF92BF929C
:1054B000CF92DF92EF92FF920F931F93CF93DF93E0
:1054C0001F92CDB7DEB78C017B015A01C22EDB01E2
:1054D00059968D919C91F801928F818FCB010E94FA
:1054E000AD25712CF70180859185A285B385418911
:1054F00052896389748984179507A607B70708F04E
:1055000052C055E0B695A795979587955A95D1F7CE
:10551000F82FFF70DF2ED70113968C91823010F494
:1055200080E0DBC041E050E0BE016F5F7F4FC7010C
:105530000E94D6280197A1F7F70180859185A28561
:10554000B3854F96A11DB11D80879187A287B38730
:10555000F0E2DF9EB001112462597C4E61157105A5
:10556000F9F2DB018C91882341F0853E09F04CC0B3
:10557000772029F077247394B5CF71100EC08091F5
:105580006E1590916F15A0917015B0917115F8017D
:1055900084879587A687B787D08ADB018C91811194
:1055A000E9CF772473948C2D8274823409F0B8CFBC
:1055B000772009F4A2C0F801D08861E0C8010E94F8
:1055C000AD26009709F4ACCF20E2DC011D922A95AC
:1055D000E9F72BE0F501DC0101900D922A95E1F746
:1055E00021E238E2FC01318B208B40E058E0578704
:1055F0004687338B228B318F208F578B468B0E94AF
:105600006B22811109C08CCF4BE050E0C5010F9493
:105610000F02892B09F066CFF0E2DF9ED001112442
:105620009D0122593C4EF9018385817121F08C2D19
:10563000827109F0FCC0F801818D928D40916E1548
:1056400050916F1560917015709171154487558751
:1056500066877787D08AFD01E259FC4E44885588D9
:10566000712C612C320155244424D80155964D9259
:105670005D926D927C925897428D538D70E060E000
:10568000442955296629772955964D935D936D9345
:105690007C935897D9011B962C91287109F0B9C0B9
:1056A000848D958DA68DB78DF801818B928BA38B00
:1056B000B48B81E083838C2D8F70F80181831482F9
:1056C000158216821782108611861286138681E053
:1056D000C4FE03C0C8010E94F19E0F90DF91CF91DC
:1056E0001F910F91FF90EF90DF90CF90BF90AF9000
:1056F0007F906F905F904F900895D70113968C9193
:105700001397823009F40CCF51968D919D910D9095
:10571000BC91A02D803E9F4FAF41B10508F000CF56
:10572000C7010E94B225882309F4FACE0E946B2299
:10573000882309F4F5CED7015996ED91FC915A973B
:1057400014964D905D906D907C901797B2E04B1A37
:10575000510861087108858504C0440C551C661CFD
:10576000771C8A95D2F786859785A089B189480EDE
:10577000591E6A1E7B1E81E08093761540926E153D
:1057800050926F156092701570927115EEE6F3E10C
:1057900080E092E0DF019C011D9221503040E1F752
:1057A000DD24D394D7015996ED91FC918481D816CC
:1057B00098F42EE633E1B301A2014D0D511D611D98
:1057C000711D80917715909178150E94042288238D
:1057D00009F4A6CED394E6CF258580E092E0A0E040
:1057E000B0E004C0880F991FAA1FBB1F2A95D2F7EB
:1057F000F7014189528963897489840F951FA61F17
:10580000B71F818B928BA38BB48B8EE693E1D12C47
:10581000DBCE203161F498012F5E3F4F0E945F2460
:10582000882329F084E0D80113968C9344CFD801C3
:1058300013961C9275CE2F923F924F925F926F9269
:105840007F928F929F92AF92BF92CF92DF92EF9210
:10585000FF920F931F93CF93DF93CDB7DEB7C25460
:10586000D1090FB6F894DEBF0FBECDBF4C015B016E
:105870006A01322E19821C821C8E1F8E672B21F525
:1058800010E0CE014C960E949628CE0101960E940F
:105890009628812FCE5BDF4F0FB6F894DEBF0FBE88
:1058A000CDBFDF91CF911F910F91FF90EF90DF90CF
:1058B000CF90BF90AF909F908F907F906F905F90B0
:1058C0004F903F902F900895FC0183818111D8CF94
:1058D000FA0180818F32C1F4CA016C010196F60190
:1058E00020812F32D1F3F50183818250823060F024
:1058F000618D728DCE014C960E94C9248E01045E8A
:105900001F4F811102C0BCCF8501CE0101967C01E1
:105910003C012E019CE1490E511C2396EFAE2397CA
:105920002F2CFE01F796CF010B96AF0120E22193B9
:10593000E817F907D9F7960190E067E0D9018D9152
:10594000882351F18F3241F1282F8E3239F46A3099
:1059500009F496CF98E06AE09D01F0CFE5E6F1E129
:105960003491332321F031968313FACF89CF69170D
:1059700008F486CF813208F483CF8F3709F480CFC3
:105980003FE9380F3A3110F420EE280FFA01E90F01
:10599000F11D20839F5FE0CF8FA9803209F470CF83
:1059A0006901F90180812F5F3F4F8F32C9F388234E
:1059B000D9F021E0B801C7010E94522A882309F4D6
:1059C0005FCF0A151B0519F0C8010E948D28942D80
:1059D000852D6E147F0421F023969FAD2397822D91
:1059E0008701E92EF82E9DCF232DB801C4010E9416
:1059F000522A182F46CF1F93CF93DF93CDB7DEB730
:105A00006B970FB6F894DEBF0FBECDBFAB01198206
:105A10001C8222E0BC01CE0101960E941B2C811148
:105A200010C010E0CE0101960E949628812F6B963F
:105A30000FB6F894DEBF0FBECDBFDF91CF911F919F
:105A40000895CE0101960E94F19E882351F361E0F2
:105A5000CE0101960E94AD26009719F325EEFC01B8
:105A600020831C820E946B22182FDCCF29E433E0B4
:105A7000FC013183208304960C9496285F9AEEE50E
:105A8000FDE010828A9A11829FB7F894A8E0B1E0F5
:105A90008C9181608C939FBF1282129A08954F92CD
:105AA0005F926F927F928F929F92AF92BF92CF92AE
:105AB000DF92EF92FF920F931F93CF93DF93EC014E
:105AC0002091980D3091990D40919A0D50919B0D18
:105AD000688179818A819B810E94B1FE6B017C0182
